S01100005446546D6F64756C652E737265639F
S11300000C941A010C9437010C9437010C943701A9
S11300100C9437010C9437010C9437010C9437017C
S11300200C9437010C9437010C9437010C9437016C
S11300300C9437010C9437010C9437010C9437015C
S11300400C9437010C9437010C9437010C9437014C
S11300500C943701000000000000005F000000075E
S1130060000700147F147F14242A7F2A1223130804
S1130070646236495522500005030000001C2241E9
S1130080000041221C00082A1C2A0808083E08080F
S113009000503000000808080808006060000020D4
S11300A0100804023E5149453E00427F400042612F
S11300B05149462141454B311814127F10274545BB
S11300C045393C4A494930017109050336494949D2
S11300D036064949291E003636000000563600000F
S11300E000081422411414141414412214080002A8
S11300F001510906324979413E7E1111117E7F4931
S11301004949363E414141227F4141221C7F4949B0
S113011049417F090901013E414151327F080808E4
S11301207F00417F41002040413F017F081422416C
S11301307F404040407F0204027F7F0408107F3EDE
S11301404141413E7F090909063E4151215E7F0933
S1130150192946464949493101017F01013F40407F
S1130160403F1F2040201F7F2018207F6314081465
S1130170630304780403615149454300007F41410E
S1130180020408102041417F0000040201020440DF
S113019040404040000102040020545454787F48F9
S11301A04444383844444420384444487F38545400
S11301B05418087E090102081454543C7F080404AE
S11301C07800447D40002040443D00007F102844D6
S11301D000417F40007C041804787C0804047838CB
S11301E0444444387C14141408081414187C7C08FF
S11301F00404084854545420043F4440203C4040E4
S1130200207C1C2040201C3C4030403C44281028CA
S1130210440C5050503C4464544C44000836410053
S113022000007F0000004136080008082A1C080866
S11302301C2A080811241FBECFE5D4E0DEBFCDBFC1
S113024010E0A0E6B0E0E2EFF6E002C005900D9207
S1130250A237B107D9F720E0A2E7B0E001C01D92B0
S1130260A437B207E1F70E9428030C9477030C9497
S1130270000080E891EC9DBD8CBD1FBC81E08EBD6B
S113028008B602FEFDCF1EBC84E088BF08958FB976
S1130290779BFECF8FB10895B89AC09887B3806AD0
S11302A087BB8DB180658DB9089591980E944701EF
S11302B0919A08959FB9779BFECF8FB9779BFECF14
S11302C08FB1089597980E943901979A0E94390135
S11302D008950E94620181E10E9455010E94390142
S11302E08AE30E94550185E00E94470189E20E9449
S11302F0550108950F931F93CF93DF93082FD62FA3
S1130300142FC22F8AE20E94550180E00E94470107
S1130310802F0E94470180E00E944701812F0E94A4
S113032047018BE20E94550180E00E9447018D2F16
S11303300E94470180E00E9447018C2F0E944701E0
S1130340DF91CF911F910F9108959F92AF92BF9229
S1130350CF92DF92EF92FF920F931F93CF93DF938D
S1130360C82F862F642FB22EC32E26E0240F44E01C
S1130370480F0E947A018CE20E9455018C2F90E074
S113038080977C01EE0CFF1CEE0CFF1C8E0D9F1D54
S11303909C012C5A3F4F79010F2EF7E0DF2EF02DF0
S11303A0D1E0912CA12C14C0F80184918D2319F073
S11303B08B2D9C2D02C0892D9A2D0E945A01C1506B
S11303C00F5F1F4FC111F0CFDD0FDA94DD2019F05C
S11303D08701C5E0E9CFDF91CF911F910F91FF9085
S11303E0EF90DF90CF90BF90AF909F900895809151
S11303F072008F5F80937200853138F080917300B2
S11304008F5F809373001092720080917300843127
S113041010F01092730008959B0140917300440FF3
S1130420440F440F90917200692F660F960F692F45
S1130430660F0E94A5010E94F70108950F931F9370
S1130440CF93DF93EC018881882341F08B012196BF
S1130450B8010E940C0289918111FACFDF91CF91EA
S11304601F910F910895EF92FF920F931F93CF93D3
S1130470DF9300E0E12C1CC018E0160F212F4F2D54
S1130480802F0E947A018CE20E945501D8E008C0B6
S113049080E090E00E945A01C150D1F7D15011F090
S11304A0C9E0F6CF612F103839F70F2D003831F03D
S11304B06894FF24F3F8F00E6E2DDECFDF91CF9118
S11304C01F910F91FF90EF9008950F931F93CF9377
S11304D0DF930E943302CAE7D1E005E110E69E01F2
S11304E0A9E1B6E80E946803281B390B36952795C5
S11304F0820F931F929582958F7089279F70892709
S1130500482F440F440F440F089F9001099F300D5A
S11305101124CE01821B930B582F550F850F582F92
S1130520550F9E01ABEABAEA0E9468030024880FC3
S1130530991F001C880F991F001C892F902D189F4C
S11305409001199F300D1124CE01821B930B2FE1D2
S113055030E0652F805E0E94A501219709F0BFCF8E
S11305600E943901DF91CF911F910F9108950F934C
S11305701F93CF93DF93182FD62F21E0260F4FE739
S11305800E947A018CE20E945501C0E08FEF9FEF38
S11305900E945A01CF5FC038C9F728C08FEF9FEF80
S11305A00E945A01CF5FC038C9F7202F412F6D2F09
S11305B0812F0E947A018CE20E945501C6E08FEFE0
S11305C09FEF0E945A01C150D1F7202F4FE76D2FA2
S11305D08FE70E947A018CE20E945501C6E08FEFFA
S11305E09FEF0E945A01C150D1F70DC006E00D0FD4
S11305F0202F4FE7602F812F0E947A018CE20E9406
S11306005501C0E0CBCFDF91CF911F910F91089599
S11306101F93CF93DF93D42F26E0260F0E947A01F5
S11306208CE20E945501D695D69514E00AC0C0E02C
S11306308FEF9FEF0E945A01CF5FCD13F9CF115076
S113064019F0D111F4CFFBCFDF91CF911F91089511
S113065081B3836081BB8F9A979AA09AA798AF9A27
S1130660D09887E886B980E687B90E944C010E9439
S113067069010E9433020E9465020E9439010E94AE
S11306803302909AD3E0369A349BFECFC5B19F993A
S11306900BC010927200D093730060E074E080E6A7
S11306A090E00E941E02EFCF10927200D09373006C
S11306B06FE170E080E690E00E941E0266E080E058
S11306C00E94B7024C2F66E080E00E940803DBCF53
S11306D0A29FB001B39FC001A39F700D811D11247F
S11306E0911DB29F700D811D1124911D0895F894E0
S10506F0FFCF36
S11306F24B65793120697320707265737365642167
S10507020000F1
S9030000FC
