S01100005446546D6F64756C652E737265639F
S11300000C942A000C9434000C9434000C943400A6
S11300100C9434000C9434000C9434000C9434008C
S11300200C9434000C9434000C9434000C9434007C
S11300300C9434000C9434000C9434000C9434006C
S11300400C9434000C9434000C9434000C9434005C
S11300500C94340011241FBECFE5D4E0DEBFCDBF25
S11300600E946F000C947C000C94000080E891ECDA
S11300709DBD8CBD1FBC81E08EBD08B602FEFDCFC8
S11300801EBC84E088BF08958FB9779BFECF8FB1E3
S11300900895B89AC09887B3806A87BB8DB180658C
S11300A08DB9089591980E944400919A0895979863
S11300B00E943600979A0E94360008950E945700C5
S11300C081E10E9452000E9436008AE30E9452009D
S11300D085E00E94440089E20E945200089581B3A1
S11300E0836081BB8F9A979A0E9449000E945E00A8
S10F00F0909A80E090E00895F894FFCF0F
S9030000FC
