S01100005446546D6F64756C652E737265639F
S11300000C941A010C9437010C9437010C943701A9
S11300100C9437010C9437010C9437010C9437017C
S11300200C9437010C9437010C9437010C9437016C
S11300300C9437010C9437010C9437010C9437015C
S11300400C9437010C9437010C9437010C9437014C
S11300500C943701000000000000005F000000075E
S1130060000700147F147F14242A7F2A1223130804
S1130070646236495522500005030000001C2241E9
S1130080000041221C00082A1C2A0808083E08080F
S113009000503000000808080808006060000020D4
S11300A0100804023E5149453E00427F400042612F
S11300B05149462141454B311814127F10274545BB
S11300C045393C4A494930017109050336494949D2
S11300D036064949291E003636000000563600000F
S11300E000081422411414141414412214080002A8
S11300F001510906324979413E7E1111117E7F4931
S11301004949363E414141227F4141221C7F4949B0
S113011049417F090901013E414151327F080808E4
S11301207F00417F41002040413F017F081422416C
S11301307F404040407F0204027F7F0408107F3EDE
S11301404141413E7F090909063E4151215E7F0933
S1130150192946464949493101017F01013F40407F
S1130160403F1F2040201F7F2018207F6314081465
S1130170630304780403615149454300007F41410E
S1130180020408102041417F0000040201020440DF
S113019040404040000102040020545454787F48F9
S11301A04444383844444420384444487F38545400
S11301B05418087E090102081454543C7F080404AE
S11301C07800447D40002040443D00007F102844D6
S11301D000417F40007C041804787C0804047838CB
S11301E0444444387C14141408081414187C7C08FF
S11301F00404084854545420043F4440203C4040E4
S1130200207C1C2040201C3C4030403C44281028CA
S1130210440C5050503C4464544C44000836410053
S113022000007F0000004136080008082A1C080866
S11302301C2A080811241FBECFE5D4E0DEBFCDBFC1
S113024010E0A0E6B0E0E4E8F5E002C005900D920D
S1130250AE36B107D9F720E0AEE6B0E001C01D929A
S1130260A037B207E1F70E9477020C94C0020C9405
S1130270000080E891EC9DBD8CBD1FBC81E08EBD6B
S113028008B602FEFDCF1EBC84E088BF08958FB976
S1130290779BFECF8FB10895B89AC09887B3806AD0
S11302A087BB8DB180658DB9089591980E944701EF
S11302B0919A08959FB9779BFECF8FB9779BFECF14
S11302C08FB1089597980E943901979A0E94390135
S11302D008950E94620181E10E9455010E94390142
S11302E08AE30E94550185E00E94470189E20E9449
S11302F0550108950F931F93CF93DF93082FD62FA3
S1130300142FC22F8AE20E94550180E00E94470107
S1130310802F0E94470180E00E944701812F0E94A4
S113032047018BE20E94550180E00E9447018D2F16
S11303300E94470180E00E9447018C2F0E944701E0
S1130340DF91CF911F910F9108952FE74FE760E060
S113035080E00E947A018CE20E94550180E090EADC
S11303601FB8779BFECF0197D9F708959F92AF925C
S1130370BF92CF92DF92EF92FF920F931F93CF938E
S1130380DF93C82F862F642FB22EC32E26E0240FAE
S113039044E0480F0E947A018CE20E9455018C2FA0
S11303A090E080977C01EE0CFF1CEE0CFF1C8E0D80
S11303B09F1D9C012C5A3F4F79010F2EF7E0DF2E31
S11303C0F02DD1E0912CA12C14C0F80184918D233F
S11303D019F08B2D9C2D02C0892D9A2D0E945A0153
S11303E0C1500F5F1F4FC111F0CFDD0FDA94DD2034
S11303F019F08701C5E0E9CFDF91CF911F910F91EB
S1130400FF90EF90DF90CF90BF90AF909F900895B2
S113041080916E008F5F80936E00853138F08091FB
S11304206F008F5F80936F0010926E0080916F0059
S1130430843110F010926F0008959B0140916F0079
S1130440440F440F440F90916E00692F660F960F6E
S1130450692F660F0E94B6010E94080208950F9347
S11304601F93CF93DF93EC018881882341F08B01A4
S11304702196B8010E941D0289918111FACFDF9162
S1130480CF911F910F910895EF92FF920F931F93B5
S1130490CF93DF930E94A501CAE7D1E00F2EF5E1C7
S11304A0EF2EF12CF02D00E610E0CE01B7010E94F2
S11304B09802462F440F440F440FE82FEE0F8E0F7F
S11304C0E82FEE0FCE01B8010E9498022FE130E030
S11304D06E2F805E0E94B601219739F70E94390180
S11304E0DF91CF911F910F91FF90EF90089581B309
S11304F0836081BB8F9A979A0E944C010E94690184
S11305000E94A5010E9444020E9439010E94A50193
S113051084E080936E0089E080936F006FE170E067
S113052080E690E00E942F02909A80E090E0089587
S113053097FB072E16F4009407D077FD09D00E948C
S1130540AC0207FC05D03EF4909581959F4F089529
S1130550709561957F4F0895AA1BBB1B51E107C09D
S1130560AA1FBB1FA617B70710F0A61BB70B881F3F
S1130570991F5A95A9F780959095BC01CD010895CE
S1070580F894FFCF19
S111058448656C6C6F2C20576F726C642100FC
S9030000FC
